{
  "contractName": "RaceCoin",
  "abi": [
    {
      "inputs": [
        {
          "internalType": "string",
          "name": "raceName",
          "type": "string"
        },
        {
          "internalType": "int256",
          "name": "maxParticipants",
          "type": "int256"
        },
        {
          "internalType": "uint256",
          "name": "startingTime",
          "type": "uint256"
        }
      ],
      "name": "createRace",
      "outputs": [],
      "stateMutability": "nonpayable",
      "type": "function"
    },
    {
      "inputs": [],
      "name": "currentRaces",
      "outputs": [
        {
          "components": [
            {
              "internalType": "string",
              "name": "name",
              "type": "string"
            },
            {
              "internalType": "int256",
              "name": "maxParticipants",
              "type": "int256"
            },
            {
              "internalType": "uint256",
              "name": "startingTime",
              "type": "uint256"
            }
          ],
          "internalType": "struct RaceCoin.Race[]",
          "name": "",
          "type": "tuple[]"
        }
      ],
      "stateMutability": "view",
      "type": "function",
      "constant": true
    },
    {
      "inputs": [
        {
          "internalType": "string",
          "name": "raceName",
          "type": "string"
        }
      ],
      "name": "signup",
      "outputs": [],
      "stateMutability": "nonpayable",
      "type": "function"
    },
    {
      "inputs": [],
      "name": "getUserEvents",
      "outputs": [
        {
          "internalType": "string[]",
          "name": "",
          "type": "string[]"
        }
      ],
      "stateMutability": "view",
      "type": "function",
      "constant": true
    }
  ],
  "bytecode": "0x608060405234801561001057600080fd5b50610db9806100206000396000f3fe608060405234801561001057600080fd5b506004361061004c5760003560e01c80630f977561146100515780634901b99e1461006f578063519c63771461008b578063fac53906146100a7575b600080fd5b6100596100c5565b60405161006691906107b9565b60405180910390f35b61008960048036038101906100849190610990565b6101db565b005b6100a560048036038101906100a091906109ff565b610302565b005b6100af6104b6565b6040516100bc9190610b78565b60405180910390f35b6060600360003373ffffffffffffffffffffffffffffffffffffffff1673ffffffffffffffffffffffffffffffffffffffff168152602001908152602001600020805480602002602001604051908101604052809291908181526020016000905b828210156101d257838290600052602060002001805461014590610bc9565b80601f016020809104026020016040519081016040528092919081815260200182805461017190610bc9565b80156101be5780601f10610193576101008083540402835291602001916101be565b820191906000526020600020905b8154815290600101906020018083116101a157829003601f168201915b505050505081526020019060010190610126565b50505050905090565b600015156002846040516101ef9190610c37565b908152602001604051809103902060009054906101000a900460ff1615151461024d576040517f08c379a000000000000000000000000000000000000000000000000000000000815260040161024490610cd1565b60405180910390fd5b600160028460405161025f9190610c37565b908152602001604051809103902060006101000a81548160ff0219169083151502179055506004604051806060016040528085815260200184815260200183815250908060018154018082558091505060019003906000526020600020906003020160009091909190915060008201518160000190805190602001906102e69291906105bb565b5060208201518160010155604082015181600201555050505050565b600115156002826040516103169190610c37565b908152602001604051809103902060009054906101000a900460ff16151514610374576040517f08c379a000000000000000000000000000000000000000000000000000000000815260040161036b90610d63565b60405180910390fd5b6001816040516103849190610c37565b90815260200160405180910390206040518060400160405280600081526020013373ffffffffffffffffffffffffffffffffffffffff1681525090806001815401808255809150506001900390600052602060002090600202016000909190919091506000820151816000015560208201518160010160006101000a81548173ffffffffffffffffffffffffffffffffffffffff021916908373ffffffffffffffffffffffffffffffffffffffff1602179055505050600360003373ffffffffffffffffffffffffffffffffffffffff1673ffffffffffffffffffffffffffffffffffffffff168152602001908152602001600020819080600181540180825580915050600190039060005260206000200160009091909190915090805190602001906104b29291906105bb565b5050565b60606004805480602002602001604051908101604052809291908181526020016000905b828210156105b2578382906000526020600020906003020160405180606001604052908160008201805461050d90610bc9565b80601f016020809104026020016040519081016040528092919081815260200182805461053990610bc9565b80156105865780601f1061055b57610100808354040283529160200191610586565b820191906000526020600020905b81548152906001019060200180831161056957829003601f168201915b5050505050815260200160018201548152602001600282015481525050815260200190600101906104da565b50505050905090565b8280546105c790610bc9565b90600052602060002090601f0160209004810192826105e95760008555610630565b82601f1061060257805160ff1916838001178555610630565b82800160010185558215610630579182015b8281111561062f578251825591602001919060010190610614565b5b50905061063d9190610641565b5090565b5b8082111561065a576000816000905550600101610642565b5090565b600081519050919050565b600082825260208201905092915050565b6000819050602082019050919050565b600081519050919050565b600082825260208201905092915050565b60005b838110156106c45780820151818401526020810190506106a9565b838111156106d3576000848401525b50505050565b6000601f19601f8301169050919050565b60006106f58261068a565b6106ff8185610695565b935061070f8185602086016106a6565b610718816106d9565b840191505092915050565b600061072f83836106ea565b905092915050565b6000602082019050919050565b600061074f8261065e565b6107598185610669565b93508360208202850161076b8561067a565b8060005b858110156107a757848403895281516107888582610723565b945061079383610737565b925060208a0199505060018101905061076f565b50829750879550505050505092915050565b600060208201905081810360008301526107d38184610744565b905092915050565b6000604051905090565b600080fd5b600080fd5b600080fd5b600080fd5b7f4e487b7100000000000000000000000000000000000000000000000000000000600052604160045260246000fd5b610831826106d9565b810181811067ffffffffffffffff821117156108505761084f6107f9565b5b80604052505050565b60006108636107db565b905061086f8282610828565b919050565b600067ffffffffffffffff82111561088f5761088e6107f9565b5b610898826106d9565b9050602081019050919050565b82818337600083830152505050565b60006108c76108c284610874565b610859565b9050828152602081018484840111156108e3576108e26107f4565b5b6108ee8482856108a5565b509392505050565b600082601f83011261090b5761090a6107ef565b5b813561091b8482602086016108b4565b91505092915050565b6000819050919050565b61093781610924565b811461094257600080fd5b50565b6000813590506109548161092e565b92915050565b6000819050919050565b61096d8161095a565b811461097857600080fd5b50565b60008135905061098a81610964565b92915050565b6000806000606084860312156109a9576109a86107e5565b5b600084013567ffffffffffffffff8111156109c7576109c66107ea565b5b6109d3868287016108f6565b93505060206109e486828701610945565b92505060406109f58682870161097b565b9150509250925092565b600060208284031215610a1557610a146107e5565b5b600082013567ffffffffffffffff811115610a3357610a326107ea565b5b610a3f848285016108f6565b91505092915050565b600081519050919050565b600082825260208201905092915050565b6000819050602082019050919050565b610a7d81610924565b82525050565b610a8c8161095a565b82525050565b60006060830160008301518482036000860152610aaf82826106ea565b9150506020830151610ac46020860182610a74565b506040830151610ad76040860182610a83565b508091505092915050565b6000610aee8383610a92565b905092915050565b6000602082019050919050565b6000610b0e82610a48565b610b188185610a53565b935083602082028501610b2a85610a64565b8060005b85811015610b665784840389528151610b478582610ae2565b9450610b5283610af6565b925060208a01995050600181019050610b2e565b50829750879550505050505092915050565b60006020820190508181036000830152610b928184610b03565b905092915050565b7f4e487b7100000000000000000000000000000000000000000000000000000000600052602260045260246000fd5b60006002820490506001821680610be157607f821691505b60208210811415610bf557610bf4610b9a565b5b50919050565b600081905092915050565b6000610c118261068a565b610c1b8185610bfb565b9350610c2b8185602086016106a6565b80840191505092915050565b6000610c438284610c06565b915081905092915050565b600082825260208201905092915050565b7f41207261636520776974682074686973206e616d6520616c726561647920657860008201527f6973747300000000000000000000000000000000000000000000000000000000602082015250565b6000610cbb602483610c4e565b9150610cc682610c5f565b604082019050919050565b60006020820190508181036000830152610cea81610cae565b9050919050565b7f596f752063616e206f6e6c79207369676e20757020746f20616e20657869737460008201527f696e672072616365000000000000000000000000000000000000000000000000602082015250565b6000610d4d602883610c4e565b9150610d5882610cf1565b604082019050919050565b60006020820190508181036000830152610d7c81610d40565b905091905056fea264697066735822122092ef373c409bc9de9450e0bf798d42ec35f505385e40386f0f499354ed05c74164736f6c634300080a0033",
  "immutableReferences": {},
  "source": "// SPDX-License-Identifier: UNLICENSED\npragma solidity >=0.8.0;\n\ncontract RaceCoin {\n\n  struct Race {\n    string name;\n    int maxParticipants;\n    uint startingTime;\n  }\n  \n  struct Result {\n    uint time;\n    address participant;\n  }\n\n  int totalEvents;\n\n  mapping(string => Result[]) results;\n  mapping(string => bool) eventNames;\n  mapping(address => string[]) myEvents;\n  Race[] events;\n\n  function createRace(string memory raceName, int maxParticipants, uint startingTime) public {\n    require(eventNames[raceName] == false, 'A race with this name already exists');\n\n    eventNames[raceName] = true;\n    events.push(Race({\n      name: raceName,\n      maxParticipants: maxParticipants,\n      startingTime: startingTime\n    }));\n  }\n\n  function currentRaces() public view returns (Race[] memory) {\n    return events;\n  }\n\n  function signup(string memory raceName) public {\n    require(eventNames[raceName] == true, 'You can only sign up to an existing race');\n    results[raceName].push(Result({\n      time: 0,\n      participant: msg.sender\n    }));\n    myEvents[msg.sender].push(raceName);\n  }\n\n  function getUserEvents() public view returns (string[] memory) {\n    return myEvents[msg.sender];\n  }\n}",
  "sourcePath": "/Users/colin/blockchain/race-coin/contracts/RaceCoin.sol",
  "compiler": {
    "name": "solc",
    "version": "0.8.10+commit.fc410830.Emscripten.clang"
  },
  "schemaVersion": "3.4.3",
  "updatedAt": "2021-11-25T18:45:59.953Z",
  "networkType": "ethereum",
  "devdoc": {
    "kind": "dev",
    "methods": {},
    "version": 1
  },
  "userdoc": {
    "kind": "user",
    "methods": {},
    "version": 1
  }
}