{
  "contractName": "RaceCoin",
  "abi": [
    {
      "inputs": [
        {
          "internalType": "string",
          "name": "raceName",
          "type": "string"
        },
        {
          "internalType": "int256",
          "name": "maxParticipants",
          "type": "int256"
        }
      ],
      "name": "createRace",
      "outputs": [],
      "stateMutability": "nonpayable",
      "type": "function"
    },
    {
      "inputs": [],
      "name": "currentRaces",
      "outputs": [
        {
          "components": [
            {
              "internalType": "string",
              "name": "name",
              "type": "string"
            },
            {
              "internalType": "int256",
              "name": "maxParticipants",
              "type": "int256"
            }
          ],
          "internalType": "struct RaceCoin.Race[]",
          "name": "",
          "type": "tuple[]"
        }
      ],
      "stateMutability": "view",
      "type": "function",
      "constant": true
    }
  ],
  "bytecode": "0x608060405234801561001057600080fd5b50610836806100206000396000f3fe608060405234801561001057600080fd5b50600436106100365760003560e01c8063e0ebdf791461003b578063fac5390614610057575b600080fd5b610055600480360381019061005091906103a6565b610075565b005b61005f61018b565b60405161006c9190610573565b60405180910390f35b60001515600283604051610089919061055c565b908152602001604051809103902060009054906101000a900460ff161515146100e7576040517f08c379a00000000000000000000000000000000000000000000000000000000081526004016100de90610595565b60405180910390fd5b60016002836040516100f9919061055c565b908152602001604051809103902060006101000a81548160ff02191690831515021790555060036040518060400160405280848152602001838152509080600181540180825580915050600190039060005260206000209060020201600090919091909150600082015181600001908051906020019061017a929190610286565b506020820151816001015550505050565b60606003805480602002602001604051908101604052809291908181526020016000905b8282101561027d57838290600052602060002090600202016040518060400160405290816000820180546101e2906106c8565b80601f016020809104026020016040519081016040528092919081815260200182805461020e906106c8565b801561025b5780601f106102305761010080835404028352916020019161025b565b820191906000526020600020905b81548152906001019060200180831161023e57829003601f168201915b50505050508152602001600182015481525050815260200190600101906101af565b50505050905090565b828054610292906106c8565b90600052602060002090601f0160209004810192826102b457600085556102fb565b82601f106102cd57805160ff19168380011785556102fb565b828001600101855582156102fb579182015b828111156102fa5782518255916020019190600101906102df565b5b509050610308919061030c565b5090565b5b8082111561032557600081600090555060010161030d565b5090565b600061033c610337846105da565b6105b5565b90508281526020810184848401111561035457600080fd5b61035f848285610686565b509392505050565b600081359050610376816107e9565b92915050565b600082601f83011261038d57600080fd5b813561039d848260208601610329565b91505092915050565b600080604083850312156103b957600080fd5b600083013567ffffffffffffffff8111156103d357600080fd5b6103df8582860161037c565b92505060206103f085828601610367565b9150509250929050565b6000610406838361051f565b905092915050565b60006104198261061b565b610423818561063e565b9350836020820285016104358561060b565b8060005b85811015610471578484038952815161045285826103fa565b945061045d83610631565b925060208a01995050600181019050610439565b50829750879550505050505092915050565b61048c8161067c565b82525050565b600061049d82610626565b6104a7818561064f565b93506104b7818560208601610695565b6104c081610789565b840191505092915050565b60006104d682610626565b6104e08185610671565b93506104f0818560208601610695565b80840191505092915050565b6000610509602483610660565b91506105148261079a565b604082019050919050565b6000604083016000830151848203600086015261053c8282610492565b91505060208301516105516020860182610483565b508091505092915050565b600061056882846104cb565b915081905092915050565b6000602082019050818103600083015261058d818461040e565b905092915050565b600060208201905081810360008301526105ae816104fc565b9050919050565b60006105bf6105d0565b90506105cb82826106fa565b919050565b6000604051905090565b600067ffffffffffffffff8211156105f5576105f461075a565b5b6105fe82610789565b9050602081019050919050565b6000819050602082019050919050565b600081519050919050565b600081519050919050565b6000602082019050919050565b600082825260208201905092915050565b600082825260208201905092915050565b600082825260208201905092915050565b600081905092915050565b6000819050919050565b82818337600083830152505050565b60005b838110156106b3578082015181840152602081019050610698565b838111156106c2576000848401525b50505050565b600060028204905060018216806106e057607f821691505b602082108114156106f4576106f361072b565b5b50919050565b61070382610789565b810181811067ffffffffffffffff821117156107225761072161075a565b5b80604052505050565b7f4e487b7100000000000000000000000000000000000000000000000000000000600052602260045260246000fd5b7f4e487b7100000000000000000000000000000000000000000000000000000000600052604160045260246000fd5b6000601f19601f8301169050919050565b7f41207261636520776974682074686973206e616d6520616c726561647920657860008201527f6973747300000000000000000000000000000000000000000000000000000000602082015250565b6107f28161067c565b81146107fd57600080fd5b5056fea26469706673582212201f5c1c0155ee8495d399cc4b8ac9d924011ca5e5d01a00fef903dc72d86df85064736f6c63430008040033",
  "immutableReferences": {},
  "source": "// SPDX-License-Identifier: UNLICENSED\npragma solidity >=0.8.0;\n\ncontract RaceCoin {\n\n  struct Race {\n    string name;\n    int maxParticipants;\n  }\n\n  struct Result {\n    uint time;\n    address participant;\n  }\n\n  int totalEvents;\n\n  mapping(string => Result[]) results;\n  mapping(string => bool) eventNames;\n  Race[] events;\n\n  function createRace(string memory raceName, int maxParticipants) public {\n    require(eventNames[raceName] == false, 'A race with this name already exists');\n\n    eventNames[raceName] = true;\n    events.push(Race({\n      name: raceName,\n      maxParticipants: maxParticipants\n    }));\n  }\n\n  function currentRaces() public view returns (Race[] memory) {\n    return events;\n  }\n}",
  "sourcePath": "/Users/colin/blockchain/race-coin/contracts/RaceCoin.sol",
  "compiler": {
    "name": "solc",
    "version": "0.8.4+commit.c7e474f2.Emscripten.clang"
  },
  "schemaVersion": "3.4.1",
  "updatedAt": "2021-05-27T18:22:25.239Z",
  "networkType": "ethereum",
  "devdoc": {
    "kind": "dev",
    "methods": {},
    "version": 1
  },
  "userdoc": {
    "kind": "user",
    "methods": {},
    "version": 1
  }
}