{
  "contractName": "RaceCoin",
  "abi": [
    {
      "inputs": [
        {
          "internalType": "string",
          "name": "raceName",
          "type": "string"
        },
        {
          "internalType": "int256",
          "name": "maxParticipants",
          "type": "int256"
        },
        {
          "internalType": "uint256",
          "name": "startingTime",
          "type": "uint256"
        }
      ],
      "name": "createRace",
      "outputs": [],
      "stateMutability": "nonpayable",
      "type": "function"
    },
    {
      "inputs": [],
      "name": "currentRaces",
      "outputs": [
        {
          "components": [
            {
              "internalType": "string",
              "name": "name",
              "type": "string"
            },
            {
              "internalType": "int256",
              "name": "maxParticipants",
              "type": "int256"
            },
            {
              "internalType": "uint256",
              "name": "startingTime",
              "type": "uint256"
            }
          ],
          "internalType": "struct RaceCoin.Race[]",
          "name": "",
          "type": "tuple[]"
        }
      ],
      "stateMutability": "view",
      "type": "function",
      "constant": true
    }
  ],
  "bytecode": "0x608060405234801561001057600080fd5b506108bc806100206000396000f3fe608060405234801561001057600080fd5b50600436106100365760003560e01c80634901b99e1461003b578063fac5390614610057575b600080fd5b610055600480360381019061005091906103d6565b610075565b005b61005f61019c565b60405161006c91906105d8565b60405180910390f35b6000151560028460405161008991906105c1565b908152602001604051809103902060009054906101000a900460ff161515146100e7576040517f08c379a00000000000000000000000000000000000000000000000000000000081526004016100de906105fa565b60405180910390fd5b60016002846040516100f991906105c1565b908152602001604051809103902060006101000a81548160ff0219169083151502179055506003604051806060016040528085815260200184815260200183815250908060018154018082558091505060019003906000526020600020906003020160009091909190915060008201518160000190805190602001906101809291906102a1565b5060208201518160010155604082015181600201555050505050565b60606003805480602002602001604051908101604052809291908181526020016000905b8282101561029857838290600052602060002090600302016040518060600160405290816000820180546101f390610737565b80601f016020809104026020016040519081016040528092919081815260200182805461021f90610737565b801561026c5780601f106102415761010080835404028352916020019161026c565b820191906000526020600020905b81548152906001019060200180831161024f57829003601f168201915b5050505050815260200160018201548152602001600282015481525050815260200190600101906101c0565b50505050905090565b8280546102ad90610737565b90600052602060002090601f0160209004810192826102cf5760008555610316565b82601f106102e857805160ff1916838001178555610316565b82800160010185558215610316579182015b828111156103155782518255916020019190600101906102fa565b5b5090506103239190610327565b5090565b5b80821115610340576000816000905550600101610328565b5090565b60006103576103528461063f565b61061a565b90508281526020810184848401111561036f57600080fd5b61037a8482856106f5565b509392505050565b60008135905061039181610858565b92915050565b600082601f8301126103a857600080fd5b81356103b8848260208601610344565b91505092915050565b6000813590506103d08161086f565b92915050565b6000806000606084860312156103eb57600080fd5b600084013567ffffffffffffffff81111561040557600080fd5b61041186828701610397565b935050602061042286828701610382565b9250506040610433868287016103c1565b9150509250925092565b60006104498383610562565b905092915050565b600061045c82610680565b61046681856106a3565b93508360208202850161047885610670565b8060005b858110156104b45784840389528151610495858261043d565b94506104a083610696565b925060208a0199505060018101905061047c565b50829750879550505050505092915050565b6104cf816106e1565b82525050565b60006104e08261068b565b6104ea81856106b4565b93506104fa818560208601610704565b610503816107f8565b840191505092915050565b60006105198261068b565b61052381856106d6565b9350610533818560208601610704565b80840191505092915050565b600061054c6024836106c5565b915061055782610809565b604082019050919050565b6000606083016000830151848203600086015261057f82826104d5565b915050602083015161059460208601826104c6565b5060408301516105a760408601826105b2565b508091505092915050565b6105bb816106eb565b82525050565b60006105cd828461050e565b915081905092915050565b600060208201905081810360008301526105f28184610451565b905092915050565b600060208201905081810360008301526106138161053f565b9050919050565b6000610624610635565b90506106308282610769565b919050565b6000604051905090565b600067ffffffffffffffff82111561065a576106596107c9565b5b610663826107f8565b9050602081019050919050565b6000819050602082019050919050565b600081519050919050565b600081519050919050565b6000602082019050919050565b600082825260208201905092915050565b600082825260208201905092915050565b600082825260208201905092915050565b600081905092915050565b6000819050919050565b6000819050919050565b82818337600083830152505050565b60005b83811015610722578082015181840152602081019050610707565b83811115610731576000848401525b50505050565b6000600282049050600182168061074f57607f821691505b602082108114156107635761076261079a565b5b50919050565b610772826107f8565b810181811067ffffffffffffffff82111715610791576107906107c9565b5b80604052505050565b7f4e487b7100000000000000000000000000000000000000000000000000000000600052602260045260246000fd5b7f4e487b7100000000000000000000000000000000000000000000000000000000600052604160045260246000fd5b6000601f19601f8301169050919050565b7f41207261636520776974682074686973206e616d6520616c726561647920657860008201527f6973747300000000000000000000000000000000000000000000000000000000602082015250565b610861816106e1565b811461086c57600080fd5b50565b610878816106eb565b811461088357600080fd5b5056fea26469706673582212200ad67a97d884681bd3da1d33a96992d8e76d25c0c26c8f0d564d065663a5ca8f64736f6c63430008040033",
  "immutableReferences": {},
  "source": "// SPDX-License-Identifier: UNLICENSED\npragma solidity >=0.8.0;\n\ncontract RaceCoin {\n\n  struct Race {\n    string name;\n    int maxParticipants;\n    uint startingTime;\n  }\n\n  struct Result {\n    uint time;\n    address participant;\n  }\n\n  int totalEvents;\n\n  mapping(string => Result[]) results;\n  mapping(string => bool) eventNames;\n  Race[] events;\n\n  function createRace(string memory raceName, int maxParticipants, uint startingTime) public {\n    require(eventNames[raceName] == false, 'A race with this name already exists');\n\n    eventNames[raceName] = true;\n    events.push(Race({\n      name: raceName,\n      maxParticipants: maxParticipants,\n      startingTime: startingTime\n    }));\n  }\n\n  function currentRaces() public view returns (Race[] memory) {\n    return events;\n  }\n}",
  "sourcePath": "/Users/colin/blockchain/race-coin/contracts/RaceCoin.sol",
  "compiler": {
    "name": "solc",
    "version": "0.8.4+commit.c7e474f2.Emscripten.clang"
  },
  "schemaVersion": "3.4.1",
  "updatedAt": "2021-05-27T19:31:01.577Z",
  "networkType": "ethereum",
  "devdoc": {
    "kind": "dev",
    "methods": {},
    "version": 1
  },
  "userdoc": {
    "kind": "user",
    "methods": {},
    "version": 1
  }
}