{
  "contractName": "RaceCoin",
  "abi": [
    {
      "inputs": [
        {
          "internalType": "string",
          "name": "raceName",
          "type": "string"
        },
        {
          "internalType": "int256",
          "name": "maxParticipants",
          "type": "int256"
        },
        {
          "internalType": "uint256",
          "name": "startingTime",
          "type": "uint256"
        }
      ],
      "name": "createRace",
      "outputs": [],
      "stateMutability": "nonpayable",
      "type": "function"
    },
    {
      "inputs": [],
      "name": "currentRaces",
      "outputs": [
        {
          "components": [
            {
              "internalType": "string",
              "name": "name",
              "type": "string"
            },
            {
              "internalType": "int256",
              "name": "maxParticipants",
              "type": "int256"
            },
            {
              "internalType": "uint256",
              "name": "startingTime",
              "type": "uint256"
            }
          ],
          "internalType": "struct RaceCoin.Race[]",
          "name": "",
          "type": "tuple[]"
        }
      ],
      "stateMutability": "view",
      "type": "function",
      "constant": true
    },
    {
      "inputs": [
        {
          "internalType": "string",
          "name": "raceName",
          "type": "string"
        }
      ],
      "name": "signup",
      "outputs": [],
      "stateMutability": "nonpayable",
      "type": "function"
    },
    {
      "inputs": [],
      "name": "getUserEvents",
      "outputs": [
        {
          "internalType": "string[]",
          "name": "",
          "type": "string[]"
        }
      ],
      "stateMutability": "view",
      "type": "function",
      "constant": true
    }
  ],
  "bytecode": "0x608060405234801561001057600080fd5b50610d8d806100206000396000f3fe608060405234801561001057600080fd5b506004361061004c5760003560e01c80630f977561146100515780634901b99e1461006f578063519c63771461008b578063fac53906146100a7575b600080fd5b6100596100c5565b60405161006691906109df565b60405180910390f35b61008960048036038101906100849190610731565b6101db565b005b6100a560048036038101906100a091906106f0565b610302565b005b6100af6104b6565b6040516100bc9190610a01565b60405180910390f35b6060600360003373ffffffffffffffffffffffffffffffffffffffff1673ffffffffffffffffffffffffffffffffffffffff168152602001908152602001600020805480602002602001604051908101604052809291908181526020016000905b828210156101d257838290600052602060002001805461014590610bb9565b80601f016020809104026020016040519081016040528092919081815260200182805461017190610bb9565b80156101be5780601f10610193576101008083540402835291602001916101be565b820191906000526020600020905b8154815290600101906020018083116101a157829003601f168201915b505050505081526020019060010190610126565b50505050905090565b600015156002846040516101ef91906109c8565b908152602001604051809103902060009054906101000a900460ff1615151461024d576040517f08c379a000000000000000000000000000000000000000000000000000000000815260040161024490610a43565b60405180910390fd5b600160028460405161025f91906109c8565b908152602001604051809103902060006101000a81548160ff0219169083151502179055506004604051806060016040528085815260200184815260200183815250908060018154018082558091505060019003906000526020600020906003020160009091909190915060008201518160000190805190602001906102e69291906105bb565b5060208201518160010155604082015181600201555050505050565b6001151560028260405161031691906109c8565b908152602001604051809103902060009054906101000a900460ff16151514610374576040517f08c379a000000000000000000000000000000000000000000000000000000000815260040161036b90610a23565b60405180910390fd5b60018160405161038491906109c8565b90815260200160405180910390206040518060400160405280600081526020013373ffffffffffffffffffffffffffffffffffffffff1681525090806001815401808255809150506001900390600052602060002090600202016000909190919091506000820151816000015560208201518160010160006101000a81548173ffffffffffffffffffffffffffffffffffffffff021916908373ffffffffffffffffffffffffffffffffffffffff1602179055505050600360003373ffffffffffffffffffffffffffffffffffffffff1673ffffffffffffffffffffffffffffffffffffffff168152602001908152602001600020819080600181540180825580915050600190039060005260206000200160009091909190915090805190602001906104b29291906105bb565b5050565b60606004805480602002602001604051908101604052809291908181526020016000905b828210156105b2578382906000526020600020906003020160405180606001604052908160008201805461050d90610bb9565b80601f016020809104026020016040519081016040528092919081815260200182805461053990610bb9565b80156105865780601f1061055b57610100808354040283529160200191610586565b820191906000526020600020905b81548152906001019060200180831161056957829003601f168201915b5050505050815260200160018201548152602001600282015481525050815260200190600101906104da565b50505050905090565b8280546105c790610bb9565b90600052602060002090601f0160209004810192826105e95760008555610630565b82601f1061060257805160ff1916838001178555610630565b82800160010185558215610630579182015b8281111561062f578251825591602001919060010190610614565b5b50905061063d9190610641565b5090565b5b8082111561065a576000816000905550600101610642565b5090565b600061067161066c84610a88565b610a63565b90508281526020810184848401111561068957600080fd5b610694848285610b77565b509392505050565b6000813590506106ab81610d29565b92915050565b600082601f8301126106c257600080fd5b81356106d284826020860161065e565b91505092915050565b6000813590506106ea81610d40565b92915050565b60006020828403121561070257600080fd5b600082013567ffffffffffffffff81111561071c57600080fd5b610728848285016106b1565b91505092915050565b60008060006060848603121561074657600080fd5b600084013567ffffffffffffffff81111561076057600080fd5b61076c868287016106b1565b935050602061077d8682870161069c565b925050604061078e868287016106db565b9150509250925092565b60006107a483836108b9565b905092915050565b60006107b88383610969565b905092915050565b60006107cb82610ad9565b6107d58185610b14565b9350836020820285016107e785610ab9565b8060005b8581101561082357848403895281516108048582610798565b945061080f83610afa565b925060208a019950506001810190506107eb565b50829750879550505050505092915050565b600061084082610ae4565b61084a8185610b25565b93508360208202850161085c85610ac9565b8060005b85811015610898578484038952815161087985826107ac565b945061088483610b07565b925060208a01995050600181019050610860565b50829750879550505050505092915050565b6108b381610b63565b82525050565b60006108c482610aef565b6108ce8185610b36565b93506108de818560208601610b86565b6108e781610c7a565b840191505092915050565b60006108fd82610aef565b6109078185610b58565b9350610917818560208601610b86565b80840191505092915050565b6000610930602883610b47565b915061093b82610c8b565b604082019050919050565b6000610953602483610b47565b915061095e82610cda565b604082019050919050565b6000606083016000830151848203600086015261098682826108b9565b915050602083015161099b60208601826108aa565b5060408301516109ae60408601826109b9565b508091505092915050565b6109c281610b6d565b82525050565b60006109d482846108f2565b915081905092915050565b600060208201905081810360008301526109f981846107c0565b905092915050565b60006020820190508181036000830152610a1b8184610835565b905092915050565b60006020820190508181036000830152610a3c81610923565b9050919050565b60006020820190508181036000830152610a5c81610946565b9050919050565b6000610a6d610a7e565b9050610a798282610beb565b919050565b6000604051905090565b600067ffffffffffffffff821115610aa357610aa2610c4b565b5b610aac82610c7a565b9050602081019050919050565b6000819050602082019050919050565b6000819050602082019050919050565b600081519050919050565b600081519050919050565b600081519050919050565b6000602082019050919050565b6000602082019050919050565b600082825260208201905092915050565b600082825260208201905092915050565b600082825260208201905092915050565b600082825260208201905092915050565b600081905092915050565b6000819050919050565b6000819050919050565b82818337600083830152505050565b60005b83811015610ba4578082015181840152602081019050610b89565b83811115610bb3576000848401525b50505050565b60006002820490506001821680610bd157607f821691505b60208210811415610be557610be4610c1c565b5b50919050565b610bf482610c7a565b810181811067ffffffffffffffff82111715610c1357610c12610c4b565b5b80604052505050565b7f4e487b7100000000000000000000000000000000000000000000000000000000600052602260045260246000fd5b7f4e487b7100000000000000000000000000000000000000000000000000000000600052604160045260246000fd5b6000601f19601f8301169050919050565b7f596f752063616e206f6e6c79207369676e20757020746f20616e20657869737460008201527f696e672072616365000000000000000000000000000000000000000000000000602082015250565b7f41207261636520776974682074686973206e616d6520616c726561647920657860008201527f6973747300000000000000000000000000000000000000000000000000000000602082015250565b610d3281610b63565b8114610d3d57600080fd5b50565b610d4981610b6d565b8114610d5457600080fd5b5056fea2646970667358221220a19f204efef669fcf442f4f73539e284b84dd6e67ef301f1af98b5f5acecad6264736f6c63430008040033",
  "immutableReferences": {},
  "source": "// SPDX-License-Identifier: UNLICENSED\npragma solidity >=0.8.0;\n\ncontract RaceCoin {\n\n  struct Race {\n    string name;\n    int maxParticipants;\n    uint startingTime;\n  }\n  \n  struct Result {\n    uint time;\n    address participant;\n  }\n\n  int totalEvents;\n\n  mapping(string => Result[]) results;\n  mapping(string => bool) eventNames;\n  mapping(address => string[]) myEvents;\n  Race[] events;\n\n  function createRace(string memory raceName, int maxParticipants, uint startingTime) public {\n    require(eventNames[raceName] == false, 'A race with this name already exists');\n\n    eventNames[raceName] = true;\n    events.push(Race({\n      name: raceName,\n      maxParticipants: maxParticipants,\n      startingTime: startingTime\n    }));\n  }\n\n  function currentRaces() public view returns (Race[] memory) {\n    return events;\n  }\n\n  function signup(string memory raceName) public {\n    require(eventNames[raceName] == true, 'You can only sign up to an existing race');\n    results[raceName].push(Result({\n      time: 0,\n      participant: msg.sender\n    }));\n    myEvents[msg.sender].push(raceName);\n  }\n\n  function getUserEvents() public view returns (string[] memory) {\n    return myEvents[msg.sender];\n  }\n}",
  "sourcePath": "/Users/yulfy/blockchain/smart-race-contract/contracts/RaceCoin.sol",
  "compiler": {
    "name": "solc",
    "version": "0.8.4+commit.c7e474f2.Emscripten.clang"
  },
  "schemaVersion": "3.4.1",
  "updatedAt": "2021-05-31T18:21:01.725Z",
  "networkType": "ethereum",
  "devdoc": {
    "kind": "dev",
    "methods": {},
    "version": 1
  },
  "userdoc": {
    "kind": "user",
    "methods": {},
    "version": 1
  }
}