{
  "contractName": "RaceCoin",
  "abi": [
    {
      "inputs": [
        {
          "internalType": "string",
          "name": "raceName",
          "type": "string"
        },
        {
          "internalType": "int256",
          "name": "maxParticipants",
          "type": "int256"
        },
        {
          "internalType": "uint256",
          "name": "startingTime",
          "type": "uint256"
        }
      ],
      "name": "createRace",
      "outputs": [],
      "stateMutability": "nonpayable",
      "type": "function"
    },
    {
      "inputs": [],
      "name": "racesRunByMe",
      "outputs": [
        {
          "components": [
            {
              "internalType": "address",
              "name": "creator",
              "type": "address"
            },
            {
              "internalType": "string",
              "name": "name",
              "type": "string"
            },
            {
              "internalType": "int256",
              "name": "maxParticipants",
              "type": "int256"
            },
            {
              "internalType": "uint256",
              "name": "startingTime",
              "type": "uint256"
            }
          ],
          "internalType": "struct RaceCoin.Race[]",
          "name": "",
          "type": "tuple[]"
        }
      ],
      "stateMutability": "view",
      "type": "function"
    },
    {
      "inputs": [],
      "name": "currentRaces",
      "outputs": [
        {
          "components": [
            {
              "internalType": "address",
              "name": "creator",
              "type": "address"
            },
            {
              "internalType": "string",
              "name": "name",
              "type": "string"
            },
            {
              "internalType": "int256",
              "name": "maxParticipants",
              "type": "int256"
            },
            {
              "internalType": "uint256",
              "name": "startingTime",
              "type": "uint256"
            }
          ],
          "internalType": "struct RaceCoin.Race[]",
          "name": "",
          "type": "tuple[]"
        }
      ],
      "stateMutability": "view",
      "type": "function"
    },
    {
      "inputs": [
        {
          "internalType": "string",
          "name": "raceName",
          "type": "string"
        }
      ],
      "name": "signup",
      "outputs": [],
      "stateMutability": "nonpayable",
      "type": "function"
    },
    {
      "inputs": [],
      "name": "getUserEvents",
      "outputs": [
        {
          "internalType": "string[]",
          "name": "",
          "type": "string[]"
        }
      ],
      "stateMutability": "view",
      "type": "function"
    }
  ],
  "bytecode": "0x608060405234801561001057600080fd5b50611185806100206000396000f3fe608060405234801561001057600080fd5b50600436106100575760003560e01c80630f9775611461005c5780632003a2c71461007a5780634901b99e14610098578063519c6377146100b4578063fac53906146100d0575b600080fd5b6100646100ee565b6040516100719190610cea565b60405180910390f35b610082610204565b60405161008f9190610d0c565b60405180910390f35b6100b260048036038101906100ad9190610a12565b6103f3565b005b6100ce60048036038101906100c991906109c9565b61057d565b005b6100d8610731565b6040516100e59190610d0c565b60405180910390f35b6060600360003373ffffffffffffffffffffffffffffffffffffffff1673ffffffffffffffffffffffffffffffffffffffff168152602001908152602001600020805480602002602001604051908101604052809291908181526020016000905b828210156101fb57838290600052602060002001805461016e90610ef6565b80601f016020809104026020016040519081016040528092919081815260200182805461019a90610ef6565b80156101e75780601f106101bc576101008083540402835291602001916101e7565b820191906000526020600020905b8154815290600101906020018083116101ca57829003601f168201915b50505050508152602001906001019061014f565b50505050905090565b60608060005b6004805490508110156103eb573373ffffffffffffffffffffffffffffffffffffffff166004828154811061024257610241611000565b5b906000526020600020906004020160000160009054906101000a900473ffffffffffffffffffffffffffffffffffffffff1673ffffffffffffffffffffffffffffffffffffffff1614156103d857600481815481106102a4576102a3611000565b5b90600052602060002090600402016040518060800160405290816000820160009054906101000a900473ffffffffffffffffffffffffffffffffffffffff1673ffffffffffffffffffffffffffffffffffffffff1673ffffffffffffffffffffffffffffffffffffffff16815260200160018201805461032390610ef6565b80601f016020809104026020016040519081016040528092919081815260200182805461034f90610ef6565b801561039c5780601f106103715761010080835404028352916020019161039c565b820191906000526020600020905b81548152906001019060200180831161037f57829003601f168201915b50505050508152602001600282015481526020016003820154815250508282815181106103cc576103cb611000565b5b60200260200101819052505b80806103e390610f59565b91505061020a565b508091505090565b600015156002846040516104079190610cd3565b908152602001604051809103902060009054906101000a900460ff16151514610465576040517f08c379a000000000000000000000000000000000000000000000000000000000815260040161045c90610d4e565b60405180910390fd5b60016002846040516104779190610cd3565b908152602001604051809103902060006101000a81548160ff021916908315150217905550600460405180608001604052803373ffffffffffffffffffffffffffffffffffffffff16815260200185815260200184815260200183815250908060018154018082558091505060019003906000526020600020906004020160009091909190915060008201518160000160006101000a81548173ffffffffffffffffffffffffffffffffffffffff021916908373ffffffffffffffffffffffffffffffffffffffff160217905550602082015181600101908051906020019061056192919061088c565b5060408201518160020155606082015181600301555050505050565b600115156002826040516105919190610cd3565b908152602001604051809103902060009054906101000a900460ff161515146105ef576040517f08c379a00000000000000000000000000000000000000000000000000000000081526004016105e690610d2e565b60405180910390fd5b6001816040516105ff9190610cd3565b90815260200160405180910390206040518060400160405280600081526020013373ffffffffffffffffffffffffffffffffffffffff1681525090806001815401808255809150506001900390600052602060002090600202016000909190919091506000820151816000015560208201518160010160006101000a81548173ffffffffffffffffffffffffffffffffffffffff021916908373ffffffffffffffffffffffffffffffffffffffff1602179055505050600360003373ffffffffffffffffffffffffffffffffffffffff1673ffffffffffffffffffffffffffffffffffffffff1681526020019081526020016000208190806001815401808255809150506001900390600052602060002001600090919091909150908051906020019061072d92919061088c565b5050565b60606004805480602002602001604051908101604052809291908181526020016000905b8282101561088357838290600052602060002090600402016040518060800160405290816000820160009054906101000a900473ffffffffffffffffffffffffffffffffffffffff1673ffffffffffffffffffffffffffffffffffffffff1673ffffffffffffffffffffffffffffffffffffffff1681526020016001820180546107de90610ef6565b80601f016020809104026020016040519081016040528092919081815260200182805461080a90610ef6565b80156108575780601f1061082c57610100808354040283529160200191610857565b820191906000526020600020905b81548152906001019060200180831161083a57829003601f168201915b505050505081526020016002820154815260200160038201548152505081526020019060010190610755565b50505050905090565b82805461089890610ef6565b90600052602060002090601f0160209004810192826108ba5760008555610901565b82601f106108d357805160ff1916838001178555610901565b82800160010185558215610901579182015b828111156109005782518255916020019190600101906108e5565b5b50905061090e9190610912565b5090565b5b8082111561092b576000816000905550600101610913565b5090565b600061094261093d84610d93565b610d6e565b90508281526020810184848401111561095e5761095d611063565b5b610969848285610eb4565b509392505050565b60008135905061098081611121565b92915050565b600082601f83011261099b5761099a61105e565b5b81356109ab84826020860161092f565b91505092915050565b6000813590506109c381611138565b92915050565b6000602082840312156109df576109de61106d565b5b600082013567ffffffffffffffff8111156109fd576109fc611068565b5b610a0984828501610986565b91505092915050565b600080600060608486031215610a2b57610a2a61106d565b5b600084013567ffffffffffffffff811115610a4957610a48611068565b5b610a5586828701610986565b9350506020610a6686828701610971565b9250506040610a77868287016109b4565b9150509250925092565b6000610a8d8383610bb1565b905092915050565b6000610aa18383610c61565b905092915050565b610ab281610e6e565b82525050565b6000610ac382610de4565b610acd8185610e1f565b935083602082028501610adf85610dc4565b8060005b85811015610b1b5784840389528151610afc8582610a81565b9450610b0783610e05565b925060208a01995050600181019050610ae3565b50829750879550505050505092915050565b6000610b3882610def565b610b428185610e30565b935083602082028501610b5485610dd4565b8060005b85811015610b905784840389528151610b718582610a95565b9450610b7c83610e12565b925060208a01995050600181019050610b58565b50829750879550505050505092915050565b610bab81610e80565b82525050565b6000610bbc82610dfa565b610bc68185610e41565b9350610bd6818560208601610ec3565b610bdf81611072565b840191505092915050565b6000610bf582610dfa565b610bff8185610e63565b9350610c0f818560208601610ec3565b80840191505092915050565b6000610c28602883610e52565b9150610c3382611083565b604082019050919050565b6000610c4b602483610e52565b9150610c56826110d2565b604082019050919050565b6000608083016000830151610c796000860182610aa9565b5060208301518482036020860152610c918282610bb1565b9150506040830151610ca66040860182610ba2565b506060830151610cb96060860182610cc4565b508091505092915050565b610ccd81610eaa565b82525050565b6000610cdf8284610bea565b915081905092915050565b60006020820190508181036000830152610d048184610ab8565b905092915050565b60006020820190508181036000830152610d268184610b2d565b905092915050565b60006020820190508181036000830152610d4781610c1b565b9050919050565b60006020820190508181036000830152610d6781610c3e565b9050919050565b6000610d78610d89565b9050610d848282610f28565b919050565b6000604051905090565b600067ffffffffffffffff821115610dae57610dad61102f565b5b610db782611072565b9050602081019050919050565b6000819050602082019050919050565b6000819050602082019050919050565b600081519050919050565b600081519050919050565b600081519050919050565b6000602082019050919050565b6000602082019050919050565b600082825260208201905092915050565b600082825260208201905092915050565b600082825260208201905092915050565b600082825260208201905092915050565b600081905092915050565b6000610e7982610e8a565b9050919050565b6000819050919050565b600073ffffffffffffffffffffffffffffffffffffffff82169050919050565b6000819050919050565b82818337600083830152505050565b60005b83811015610ee1578082015181840152602081019050610ec6565b83811115610ef0576000848401525b50505050565b60006002820490506001821680610f0e57607f821691505b60208210811415610f2257610f21610fd1565b5b50919050565b610f3182611072565b810181811067ffffffffffffffff82111715610f5057610f4f61102f565b5b80604052505050565b6000610f6482610eaa565b91507fffffffffffffffffffffffffffffffffffffffffffffffffffffffffffffffff821415610f9757610f96610fa2565b5b600182019050919050565b7f4e487b7100000000000000000000000000000000000000000000000000000000600052601160045260246000fd5b7f4e487b7100000000000000000000000000000000000000000000000000000000600052602260045260246000fd5b7f4e487b7100000000000000000000000000000000000000000000000000000000600052603260045260246000fd5b7f4e487b7100000000000000000000000000000000000000000000000000000000600052604160045260246000fd5b600080fd5b600080fd5b600080fd5b600080fd5b6000601f19601f8301169050919050565b7f596f752063616e206f6e6c79207369676e20757020746f20616e20657869737460008201527f696e672072616365000000000000000000000000000000000000000000000000602082015250565b7f41207261636520776974682074686973206e616d6520616c726561647920657860008201527f6973747300000000000000000000000000000000000000000000000000000000602082015250565b61112a81610e80565b811461113557600080fd5b50565b61114181610eaa565b811461114c57600080fd5b5056fea2646970667358221220c83903ff232332402fb38719e46ad4e5afc8abbdf486532a6f270cd90f4f436e64736f6c63430008050033",
  "immutableReferences": {},
  "source": "// SPDX-License-Identifier: UNLICENSED\npragma solidity >=0.8.0;\n\ncontract RaceCoin {\n\n  struct Race {\n    address creator;\n    string name;\n    int maxParticipants;\n    uint startingTime;\n  }\n  \n  struct Result {\n    uint time;\n    address participant;\n  }\n\n  int totalEvents;\n\n  mapping(string => Result[]) results;\n  mapping(string => bool) eventNames;\n  mapping(address => string[]) myEvents; // Events signed up to\n  Race[] events;\n\n  function createRace(string memory raceName, int maxParticipants, uint startingTime) public {\n    require(eventNames[raceName] == false, 'A race with this name already exists');\n\n    eventNames[raceName] = true;\n    events.push(Race({\n      creator: msg.sender,\n      name: raceName,\n      maxParticipants: maxParticipants,\n      startingTime: startingTime\n    }));\n  }\n\n  function racesRunByMe() public view returns (Race[] memory) {\n    Race[] memory racesCreatedByMe;\n    for (uint i = 0; i < events.length; i++) {\n      if (events[i].creator == msg.sender) {\n        racesCreatedByMe[i] = events[i];\n      }\n    }\n    return racesCreatedByMe;\n  }\n\n  function currentRaces() public view returns (Race[] memory) {\n    return events;\n  }\n\n  function signup(string memory raceName) public {\n    require(eventNames[raceName] == true, 'You can only sign up to an existing race');\n    results[raceName].push(Result({\n      time: 0,\n      participant: msg.sender\n    }));\n    myEvents[msg.sender].push(raceName);\n  }\n\n  function getUserEvents() public view returns (string[] memory) {\n    return myEvents[msg.sender];\n  }\n}",
  "sourcePath": "/Users/yulfy/blockchain/smart-race-contract/contracts/RaceCoin.sol",
  "compiler": {
    "name": "solc",
    "version": "0.8.5+commit.a4f2e591.Emscripten.clang"
  },
  "schemaVersion": "3.4.1",
  "updatedAt": "2021-06-19T16:24:58.972Z",
  "devdoc": {
    "kind": "dev",
    "methods": {},
    "version": 1
  },
  "userdoc": {
    "kind": "user",
    "methods": {},
    "version": 1
  }
}